{"abi":[{"type":"constructor","inputs":[],"stateMutability":"nonpayable"},{"type":"function","name":"Ping","inputs":[],"outputs":[{"name":"","type":"string","internalType":"string"}],"stateMutability":"pure"},{"type":"function","name":"buyer","inputs":[],"outputs":[{"name":"","type":"address","internalType":"address"}],"stateMutability":"view"},{"type":"function","name":"closeContract","inputs":[{"name":"contractId","type":"uint16","internalType":"uint16"}],"outputs":[],"stateMutability":"nonpayable"},{"type":"function","name":"createContract","inputs":[{"name":"input","type":"tuple","internalType":"struct SellingAgreement.ContractInput","components":[{"name":"contractId","type":"uint256","internalType":"uint256"},{"name":"creationDate","type":"uint256","internalType":"uint256"},{"name":"description","type":"string","internalType":"string"},{"name":"units","type":"uint32","internalType":"uint32"},{"name":"lote","type":"string","internalType":"string"},{"name":"unitPrice","type":"uint256","internalType":"uint256"},{"name":"maxDeliveryDate","type":"uint256","internalType":"uint256"},{"name":"realDeliveryDate","type":"uint256","internalType":"uint256"},{"name":"minDaysValidity","type":"uint8","internalType":"uint8"},{"name":"locationDelivery","type":"uint8","internalType":"uint8"},{"name":"requiredDocuments","type":"uint8[]","internalType":"uint8[]"},{"name":"warehouseReceiver","type":"address","internalType":"address"},{"name":"seller","type":"address","internalType":"address"},{"name":"isActive","type":"bool","internalType":"bool"}]}],"outputs":[{"name":"contractId","type":"uint16","internalType":"uint16"}],"stateMutability":"nonpayable"},{"type":"function","name":"getContract","inputs":[{"name":"contractId","type":"uint16","internalType":"uint16"}],"outputs":[{"name":"","type":"tuple","internalType":"struct SellingAgreement.ContractInput","components":[{"name":"contractId","type":"uint256","internalType":"uint256"},{"name":"creationDate","type":"uint256","internalType":"uint256"},{"name":"description","type":"string","internalType":"string"},{"name":"units","type":"uint32","internalType":"uint32"},{"name":"lote","type":"string","internalType":"string"},{"name":"unitPrice","type":"uint256","internalType":"uint256"},{"name":"maxDeliveryDate","type":"uint256","internalType":"uint256"},{"name":"realDeliveryDate","type":"uint256","internalType":"uint256"},{"name":"minDaysValidity","type":"uint8","internalType":"uint8"},{"name":"locationDelivery","type":"uint8","internalType":"uint8"},{"name":"requiredDocuments","type":"uint8[]","internalType":"uint8[]"},{"name":"warehouseReceiver","type":"address","internalType":"address"},{"name":"seller","type":"address","internalType":"address"},{"name":"isActive","type":"bool","internalType":"bool"}]}],"stateMutability":"view"},{"type":"function","name":"updateDeliveryDate","inputs":[{"name":"contractId","type":"uint16","internalType":"uint16"},{"name":"_realDeliveryDate","type":"uint256","internalType":"uint256"}],"outputs":[],"stateMutability":"nonpayable"},{"type":"event","name":"ContractClosed","inputs":[{"name":"contractId","type":"uint256","indexed":true,"internalType":"uint256"}],"anonymous":false},{"type":"event","name":"ContractCreated","inputs":[{"name":"contractId","type":"uint256","indexed":true,"internalType":"uint256"},{"name":"seller","type":"address","indexed":true,"internalType":"address"},{"name":"warehouse","type":"address","indexed":true,"internalType":"address"},{"name":"creationDate","type":"uint256","indexed":false,"internalType":"uint256"}],"anonymous":false},{"type":"event","name":"DeliveryUpdated","inputs":[{"name":"contractId","type":"uint256","indexed":true,"internalType":"uint256"},{"name":"realDeliveryDate","type":"uint256","indexed":false,"internalType":"uint256"}],"anonymous":false}],"bytecode":{"object":"0x60a060405260015f5f6101000a81548161ffff021916908361ffff160217905550348015602a575f5ffd5b503373ffffffffffffffffffffffffffffffffffffffff1660808173ffffffffffffffffffffffffffffffffffffffff1681525050608051611aa66100855f395f818161013a015281816102f901526109e60152611aa65ff3fe608060405234801561000f575f5ffd5b5060043610610060575f3560e01c80630aa745201461006457806332b1e95e14610080578063641b5035146100b05780637150d8ae146100e0578063ca6e822d146100fe578063f574bd741461011c575b5f5ffd5b61007e60048036038101906100799190610dfe565b610138565b005b61009a60048036038101906100959190610e4c565b6102f6565b6040516100a79190610ea2565b60405180910390f35b6100ca60048036038101906100c59190610dfe565b610665565b6040516100d791906111b6565b60405180910390f35b6100e86109e4565b6040516100f591906111e5565b60405180910390f35b610106610a08565b6040516101139190611246565b60405180910390f35b61013660048036038101906101319190611290565b610a45565b005b7f000000000000000000000000000000000000000000000000000000000000000073ffffffffffffffffffffffffffffffffffffffff163373ffffffffffffffffffffffffffffffffffffffff16146101c6576040517f08c379a00000000000000000000000000000000000000000000000000000000081526004016101bd90611318565b60405180910390fd5b805f60015f8361ffff1661ffff1681526020019081526020015f205f015403610224576040517f08c379a000000000000000000000000000000000000000000000000000000000815260040161021b90611380565b60405180910390fd5b60015f8261ffff1661ffff1681526020019081526020015f20600b0160149054906101000a900460ff1661028d576040517f08c379a0000000000000000000000000000000000000000000000000000000008152600401610284906113e8565b60405180910390fd5b5f60015f8461ffff1661ffff1681526020019081526020015f20600b0160146101000a81548160ff0219169083151502179055508161ffff167fd79ef0d7f68df3d827e7c4b6a13ec4570e9a30515c4717bbaa647da58ca68be160405160405180910390a25050565b5f7f000000000000000000000000000000000000000000000000000000000000000073ffffffffffffffffffffffffffffffffffffffff163373ffffffffffffffffffffffffffffffffffffffff1614610385576040517f08c379a000000000000000000000000000000000000000000000000000000000815260040161037c90611318565b60405180910390fd5b5f5f81819054906101000a900461ffff16809291906103a390611433565b91906101000a81548161ffff021916908361ffff16021790555090505f60015f8361ffff1661ffff1681526020019081526020015f2090508161ffff16815f01819055504281600101819055508280604001906104009190611468565b8260020191826104119291906116fe565b5082606001602081019061042591906117f5565b816003015f6101000a81548163ffffffff021916908363ffffffff1602179055508280608001906104569190611468565b8260040191826104679291906116fe565b508260a0013581600501819055508260c00135816006018190555082610100016020810190610496919061184a565b816008015f6101000a81548160ff021916908360ff160217905550826101200160208101906104c5919061184a565b8160080160016101000a81548160ff021916908360ff160217905550828061014001906104f29190611875565b826009019190610503929190610c61565b50826101600160208101906105189190611901565b81600a015f6101000a81548173ffffffffffffffffffffffffffffffffffffffff021916908373ffffffffffffffffffffffffffffffffffffffff1602179055508261018001602081019061056d9190611901565b81600b015f6101000a81548173ffffffffffffffffffffffffffffffffffffffff021916908373ffffffffffffffffffffffffffffffffffffffff160217905550600181600b0160146101000a81548160ff021916908315150217905550826101600160208101906105df9190611901565b73ffffffffffffffffffffffffffffffffffffffff16836101800160208101906106099190611901565b73ffffffffffffffffffffffffffffffffffffffff168361ffff167f3c82c7acfd65de4acffc8bb4aa92575cb40870181efe476224a7198d57870ad88460010154604051610657919061193b565b60405180910390a450919050565b61066d610d06565b5f60015f8461ffff1661ffff1681526020019081526020015f205f0154036106ca576040517f08c379a00000000000000000000000000000000000000000000000000000000081526004016106c190611380565b60405180910390fd5b60015f8361ffff1661ffff1681526020019081526020015f20604051806101c00160405290815f8201548152602001600182015481526020016002820180546107129061152e565b80601f016020809104026020016040519081016040528092919081815260200182805461073e9061152e565b80156107895780601f1061076057610100808354040283529160200191610789565b820191905f5260205f20905b81548152906001019060200180831161076c57829003601f168201915b50505050508152602001600382015f9054906101000a900463ffffffff1663ffffffff1663ffffffff1681526020016004820180546107c79061152e565b80601f01602080910402602001604051908101604052809291908181526020018280546107f39061152e565b801561083e5780601f106108155761010080835404028352916020019161083e565b820191905f5260205f20905b81548152906001019060200180831161082157829003601f168201915b50505050508152602001600582015481526020016006820154815260200160078201548152602001600882015f9054906101000a900460ff1660ff1660ff1681526020016008820160019054906101000a900460ff1660ff1660ff1681526020016009820180548060200260200160405190810160405280929190818152602001828054801561090f57602002820191905f5260205f20905f905b82829054906101000a900460ff1660ff16815260200190600101906020825f010492830192600103820291508084116108d95790505b50505050508152602001600a82015f9054906101000a900473ffffffffffffffffffffffffffffffffffffffff1673ffffffffffffffffffffffffffffffffffffffff1673ffffffffffffffffffffffffffffffffffffffff168152602001600b82015f9054906101000a900473ffffffffffffffffffffffffffffffffffffffff1673ffffffffffffffffffffffffffffffffffffffff1673ffffffffffffffffffffffffffffffffffffffff168152602001600b820160149054906101000a900460ff1615151515815250509050919050565b7f000000000000000000000000000000000000000000000000000000000000000081565b60606040518060400160405280600481526020017f706f6e6700000000000000000000000000000000000000000000000000000000815250905090565b60015f8361ffff1661ffff1681526020019081526020015f20600a015f9054906101000a900473ffffffffffffffffffffffffffffffffffffffff168073ffffffffffffffffffffffffffffffffffffffff163373ffffffffffffffffffffffffffffffffffffffff1614610aef576040517f08c379a0000000000000000000000000000000000000000000000000000000008152600401610ae6906119c4565b60405180910390fd5b825f60015f8361ffff1661ffff1681526020019081526020015f205f015403610b4d576040517f08c379a0000000000000000000000000000000000000000000000000000000008152600401610b4490611380565b60405180910390fd5b60015f8261ffff1661ffff1681526020019081526020015f20600b0160149054906101000a900460ff16610bb6576040517f08c379a0000000000000000000000000000000000000000000000000000000008152600401610bad906113e8565b60405180910390fd5b5f60015f8661ffff1661ffff1681526020019081526020015f20905042841115610c15576040517f08c379a0000000000000000000000000000000000000000000000000000000008152600401610c0c90611a52565b60405180910390fd5b8381600701819055508461ffff167fcaf6e0d3159ebcbe6c07013d4ecb8241dbdee709507757100e64ffe5f3d38b1a85604051610c52919061193b565b60405180910390a25050505050565b828054828255905f5260205f2090601f01602090048101928215610cf5579160200282015f5b83821115610cc757833560ff1683826101000a81548160ff021916908360ff16021790555092602001926001016020815f01049283019260010302610c87565b8015610cf35782816101000a81549060ff02191690556001016020815f01049283019260010302610cc7565b505b509050610d029190610da4565b5090565b604051806101c001604052805f81526020015f8152602001606081526020015f63ffffffff168152602001606081526020015f81526020015f81526020015f81526020015f60ff1681526020015f60ff168152602001606081526020015f73ffffffffffffffffffffffffffffffffffffffff1681526020015f73ffffffffffffffffffffffffffffffffffffffff1681526020015f151581525090565b5b80821115610dbb575f815f905550600101610da5565b5090565b5f5ffd5b5f5ffd5b5f61ffff82169050919050565b610ddd81610dc7565b8114610de7575f5ffd5b50565b5f81359050610df881610dd4565b92915050565b5f60208284031215610e1357610e12610dbf565b5b5f610e2084828501610dea565b91505092915050565b5f5ffd5b5f6101c08284031215610e4357610e42610e29565b5b81905092915050565b5f60208284031215610e6157610e60610dbf565b5b5f82013567ffffffffffffffff811115610e7e57610e7d610dc3565b5b610e8a84828501610e2d565b91505092915050565b610e9c81610dc7565b82525050565b5f602082019050610eb55f830184610e93565b92915050565b5f819050919050565b610ecd81610ebb565b82525050565b5f81519050919050565b5f82825260208201905092915050565b8281835e5f83830152505050565b5f601f19601f8301169050919050565b5f610f1582610ed3565b610f1f8185610edd565b9350610f2f818560208601610eed565b610f3881610efb565b840191505092915050565b5f63ffffffff82169050919050565b610f5b81610f43565b82525050565b5f60ff82169050919050565b610f7681610f61565b82525050565b5f81519050919050565b5f82825260208201905092915050565b5f819050602082019050919050565b5f610fb08383610f6d565b60208301905092915050565b5f602082019050919050565b5f610fd282610f7c565b610fdc8185610f86565b9350610fe783610f96565b805f5b83811015611017578151610ffe8882610fa5565b975061100983610fbc565b925050600181019050610fea565b5085935050505092915050565b5f73ffffffffffffffffffffffffffffffffffffffff82169050919050565b5f61104d82611024565b9050919050565b61105d81611043565b82525050565b5f8115159050919050565b61107781611063565b82525050565b5f6101c083015f8301516110935f860182610ec4565b5060208301516110a66020860182610ec4565b50604083015184820360408601526110be8282610f0b565b91505060608301516110d36060860182610f52565b50608083015184820360808601526110eb8282610f0b565b91505060a083015161110060a0860182610ec4565b5060c083015161111360c0860182610ec4565b5060e083015161112660e0860182610ec4565b5061010083015161113b610100860182610f6d565b50610120830151611150610120860182610f6d565b5061014083015184820361014086015261116a8282610fc8565b915050610160830151611181610160860182611054565b50610180830151611196610180860182611054565b506101a08301516111ab6101a086018261106e565b508091505092915050565b5f6020820190508181035f8301526111ce818461107d565b905092915050565b6111df81611043565b82525050565b5f6020820190506111f85f8301846111d6565b92915050565b5f82825260208201905092915050565b5f61121882610ed3565b61122281856111fe565b9350611232818560208601610eed565b61123b81610efb565b840191505092915050565b5f6020820190508181035f83015261125e818461120e565b905092915050565b61126f81610ebb565b8114611279575f5ffd5b50565b5f8135905061128a81611266565b92915050565b5f5f604083850312156112a6576112a5610dbf565b5b5f6112b385828601610dea565b92505060206112c48582860161127c565b9150509250929050565b7f4f6e6c7920427579657220616c6c6f77656400000000000000000000000000005f82015250565b5f6113026012836111fe565b915061130d826112ce565b602082019050919050565b5f6020820190508181035f83015261132f816112f6565b9050919050565b7f436f6e747261637420646f6573206e6f742065786973740000000000000000005f82015250565b5f61136a6017836111fe565b915061137582611336565b602082019050919050565b5f6020820190508181035f8301526113978161135e565b9050919050565b7f436f6e747261637420697320696e6163746976650000000000000000000000005f82015250565b5f6113d26014836111fe565b91506113dd8261139e565b602082019050919050565b5f6020820190508181035f8301526113ff816113c6565b9050919050565b7f4e487b71000000000000000000000000000000000000000000000000000000005f52601160045260245ffd5b5f61143d82610dc7565b915061ffff820361145157611450611406565b5b600182019050919050565b5f5ffd5b5f5ffd5b5f5ffd5b5f5f833560016020038436030381126114845761148361145c565b5b80840192508235915067ffffffffffffffff8211156114a6576114a5611460565b5b6020830192506001820236038313156114c2576114c1611464565b5b509250929050565b5f82905092915050565b7f4e487b71000000000000000000000000000000000000000000000000000000005f52604160045260245ffd5b7f4e487b71000000000000000000000000000000000000000000000000000000005f52602260045260245ffd5b5f600282049050600182168061154557607f821691505b60208210810361155857611557611501565b5b50919050565b5f819050815f5260205f209050919050565b5f6020601f8301049050919050565b5f82821b905092915050565b5f600883026115ba7fffffffffffffffffffffffffffffffffffffffffffffffffffffffffffffffff8261157f565b6115c4868361157f565b95508019841693508086168417925050509392505050565b5f819050919050565b5f6115ff6115fa6115f584610ebb565b6115dc565b610ebb565b9050919050565b5f819050919050565b611618836115e5565b61162c61162482611606565b84845461158b565b825550505050565b5f5f905090565b611643611634565b61164e81848461160f565b505050565b5b81811015611671576116665f8261163b565b600181019050611654565b5050565b601f8211156116b6576116878161155e565b61169084611570565b8101602085101561169f578190505b6116b36116ab85611570565b830182611653565b50505b505050565b5f82821c905092915050565b5f6116d65f19846008026116bb565b1980831691505092915050565b5f6116ee83836116c7565b9150826002028217905092915050565b61170883836114ca565b67ffffffffffffffff811115611721576117206114d4565b5b61172b825461152e565b611736828285611675565b5f601f831160018114611763575f8415611751578287013590505b61175b85826116e3565b8655506117c2565b601f1984166117718661155e565b5f5b8281101561179857848901358255600182019150602085019450602081019050611773565b868310156117b557848901356117b1601f8916826116c7565b8355505b6001600288020188555050505b50505050505050565b6117d481610f43565b81146117de575f5ffd5b50565b5f813590506117ef816117cb565b92915050565b5f6020828403121561180a57611809610dbf565b5b5f611817848285016117e1565b91505092915050565b61182981610f61565b8114611833575f5ffd5b50565b5f8135905061184481611820565b92915050565b5f6020828403121561185f5761185e610dbf565b5b5f61186c84828501611836565b91505092915050565b5f5f833560016020038436030381126118915761189061145c565b5b80840192508235915067ffffffffffffffff8211156118b3576118b2611460565b5b6020830192506020820236038313156118cf576118ce611464565b5b509250929050565b6118e081611043565b81146118ea575f5ffd5b50565b5f813590506118fb816118d7565b92915050565b5f6020828403121561191657611915610dbf565b5b5f611923848285016118ed565b91505092915050565b61193581610ebb565b82525050565b5f60208201905061194e5f83018461192c565b92915050565b7f4f6e6c792057617265686f75736520726563657074696f6e6973742020616c6c5f8201527f6f77656400000000000000000000000000000000000000000000000000000000602082015250565b5f6119ae6024836111fe565b91506119b982611954565b604082019050919050565b5f6020820190508181035f8301526119db816119a2565b9050919050565b7f44656c697665727920646174652063616e6e6f7420626520696e2074686520665f8201527f7574757265000000000000000000000000000000000000000000000000000000602082015250565b5f611a3c6025836111fe565b9150611a47826119e2565b604082019050919050565b5f6020820190508181035f830152611a6981611a30565b905091905056fea264697066735822122003e44b851488c09225bf410e1b22801b7676c7b5d8f7e2ad9a3c5351180f6b6864736f6c634300081c0033","linkReferences":{}},"methodIdentifiers":{"Ping()":"ca6e822d","buyer()":"7150d8ae","closeContract(uint16)":"0aa74520","createContract((uint256,uint256,string,uint32,string,uint256,uint256,uint256,uint8,uint8,uint8[],address,address,bool))":"32b1e95e","getContract(uint16)":"641b5035","updateDeliveryDate(uint16,uint256)":"f574bd74"},"id":19}